{
  "contractName": "DIRenewalService",
  "abi": [
    {
      "constant": false,
      "inputs": [
        {
          "name": "_driverid",
          "type": "string"
        },
        {
          "name": "_expirationdate",
          "type": "string"
        },
        {
          "name": "_newdate",
          "type": "string"
        }
      ],
      "name": "setDIRenewalChange",
      "outputs": [],
      "payable": false,
      "stateMutability": "nonpayable",
      "type": "function"
    },
    {
      "constant": true,
      "inputs": [],
      "name": "getDIRenewalChange",
      "outputs": [
        {
          "name": "",
          "type": "string"
        },
        {
          "name": "",
          "type": "string"
        },
        {
          "name": "",
          "type": "string"
        }
      ],
      "payable": false,
      "stateMutability": "view",
      "type": "function"
    }
  ],
  "bytecode": "0x608060405234801561001057600080fd5b506106b4806100206000396000f3fe60806040526004361061004c576000357c0100000000000000000000000000000000000000000000000000000000900463ffffffff168063496e15101461005157806389901f4214610247575b600080fd5b34801561005d57600080fd5b506102456004803603606081101561007457600080fd5b810190808035906020019064010000000081111561009157600080fd5b8201836020820111156100a357600080fd5b803590602001918460018302840111640100000000831117156100c557600080fd5b91908080601f016020809104026020016040519081016040528093929190818152602001838380828437600081840152601f19601f8201169050808301925050505050505091929192908035906020019064010000000081111561012857600080fd5b82018360208201111561013a57600080fd5b8035906020019184600183028401116401000000008311171561015c57600080fd5b91908080601f016020809104026020016040519081016040528093929190818152602001838380828437600081840152601f19601f820116905080830192505050505050509192919290803590602001906401000000008111156101bf57600080fd5b8201836020820111156101d157600080fd5b803590602001918460018302840111640100000000831117156101f357600080fd5b91908080601f016020809104026020016040519081016040528093929190818152602001838380828437600081840152601f19601f8201169050808301925050505050505091929192905050506103af565b005b34801561025357600080fd5b5061025c6103f9565b60405180806020018060200180602001848103845287818151815260200191508051906020019080838360005b838110156102a4578082015181840152602081019050610289565b50505050905090810190601f1680156102d15780820380516001836020036101000a031916815260200191505b50848103835286818151815260200191508051906020019080838360005b8381101561030a5780820151818401526020810190506102ef565b50505050905090810190601f1680156103375780820380516001836020036101000a031916815260200191505b50848103825285818151815260200191508051906020019080838360005b83811015610370578082015181840152602081019050610355565b50505050905090810190601f16801561039d5780820380516001836020036101000a031916815260200191505b50965050505050505060405180910390f35b82600090805190602001906103c59291906105e3565b5081600190805190602001906103dc9291906105e3565b5080600290805190602001906103f39291906105e3565b50505050565b6060806060600060016002828054600181600116156101000203166002900480601f0160208091040260200160405190810160405280929190818152602001828054600181600116156101000203166002900480156104995780601f1061046e57610100808354040283529160200191610499565b820191906000526020600020905b81548152906001019060200180831161047c57829003601f168201915b50505050509250818054600181600116156101000203166002900480601f0160208091040260200160405190810160405280929190818152602001828054600181600116156101000203166002900480156105355780601f1061050a57610100808354040283529160200191610535565b820191906000526020600020905b81548152906001019060200180831161051857829003601f168201915b50505050509150808054600181600116156101000203166002900480601f0160208091040260200160405190810160405280929190818152602001828054600181600116156101000203166002900480156105d15780601f106105a6576101008083540402835291602001916105d1565b820191906000526020600020905b8154815290600101906020018083116105b457829003601f168201915b50505050509050925092509250909192565b828054600181600116156101000203166002900490600052602060002090601f016020900481019282601f1061062457805160ff1916838001178555610652565b82800160010185558215610652579182015b82811115610651578251825591602001919060010190610636565b5b50905061065f9190610663565b5090565b61068591905b80821115610681576000816000905550600101610669565b5090565b9056fea165627a7a7230582091937542836ee7b268076288683fdb2fb57479045543503379774a968d679aee0029",
  "source": "pragma solidity ^0.5.0;\r\n\r\ncontract DIRenewalService {\r\n   string driverid;\r\n   string expirationdate;\r\n   string newdate;\r\n\r\nfunction setDIRenewalChange(string memory _driverid, string memory _expirationdate, string memory _newdate) public {\r\n      driverid = _driverid;\r\n      expirationdate= _expirationdate;\r\n      newdate = _newdate;\r\n      \r\n   }\r\n   \r\n   function getDIRenewalChange() public view returns (string memory ,string memory ,string memory ) {\r\n       return ( driverid,expirationdate,newdate);\r\n   \r\n   }\r\n    \r\n}",
  "sourcePath": "/Users/mdjavedulferdous/Desktop/864/contracts/DlRenewal.sol",
  "compiler": {
    "name": "solc",
    "version": "0.5.0+commit.1d4f565a.Emscripten.clang"
  },
  "schemaVersion": "3.0.2",
  "updatedAt": "2021-04-29T01:35:46.028Z",
  "devdoc": {
    "methods": {}
  },
  "userdoc": {
    "methods": {}
  }
}