{
  "contractName": "realIdService",
  "abi": [
    {
      "constant": false,
      "inputs": [
        {
          "name": "_driverid",
          "type": "string"
        },
        {
          "name": "_address1",
          "type": "string"
        },
        {
          "name": "_address2",
          "type": "string"
        }
      ],
      "name": "setRealIdChange",
      "outputs": [],
      "payable": false,
      "stateMutability": "nonpayable",
      "type": "function"
    },
    {
      "constant": true,
      "inputs": [],
      "name": "getRealIdChange",
      "outputs": [
        {
          "name": "",
          "type": "string"
        },
        {
          "name": "",
          "type": "string"
        },
        {
          "name": "",
          "type": "string"
        }
      ],
      "payable": false,
      "stateMutability": "view",
      "type": "function"
    }
  ],
  "bytecode": "0x608060405234801561001057600080fd5b506106b4806100206000396000f3fe60806040526004361061004c576000357c0100000000000000000000000000000000000000000000000000000000900463ffffffff16806335c4a4971461005157806366467b24146101b9575b600080fd5b34801561005d57600080fd5b506100666103af565b60405180806020018060200180602001848103845287818151815260200191508051906020019080838360005b838110156100ae578082015181840152602081019050610093565b50505050905090810190601f1680156100db5780820380516001836020036101000a031916815260200191505b50848103835286818151815260200191508051906020019080838360005b838110156101145780820151818401526020810190506100f9565b50505050905090810190601f1680156101415780820380516001836020036101000a031916815260200191505b50848103825285818151815260200191508051906020019080838360005b8381101561017a57808201518184015260208101905061015f565b50505050905090810190601f1680156101a75780820380516001836020036101000a031916815260200191505b50965050505050505060405180910390f35b3480156101c557600080fd5b506103ad600480360360608110156101dc57600080fd5b81019080803590602001906401000000008111156101f957600080fd5b82018360208201111561020b57600080fd5b8035906020019184600183028401116401000000008311171561022d57600080fd5b91908080601f016020809104026020016040519081016040528093929190818152602001838380828437600081840152601f19601f8201169050808301925050505050505091929192908035906020019064010000000081111561029057600080fd5b8201836020820111156102a257600080fd5b803590602001918460018302840111640100000000831117156102c457600080fd5b91908080601f016020809104026020016040519081016040528093929190818152602001838380828437600081840152601f19601f8201169050808301925050505050505091929192908035906020019064010000000081111561032757600080fd5b82018360208201111561033957600080fd5b8035906020019184600183028401116401000000008311171561035b57600080fd5b91908080601f016020809104026020016040519081016040528093929190818152602001838380828437600081840152601f19601f820116905080830192505050505050509192919290505050610599565b005b6060806060600060016002828054600181600116156101000203166002900480601f01602080910402602001604051908101604052809291908181526020018280546001816001161561010002031660029004801561044f5780601f106104245761010080835404028352916020019161044f565b820191906000526020600020905b81548152906001019060200180831161043257829003601f168201915b50505050509250818054600181600116156101000203166002900480601f0160208091040260200160405190810160405280929190818152602001828054600181600116156101000203166002900480156104eb5780601f106104c0576101008083540402835291602001916104eb565b820191906000526020600020905b8154815290600101906020018083116104ce57829003601f168201915b50505050509150808054600181600116156101000203166002900480601f0160208091040260200160405190810160405280929190818152602001828054600181600116156101000203166002900480156105875780601f1061055c57610100808354040283529160200191610587565b820191906000526020600020905b81548152906001019060200180831161056a57829003601f168201915b50505050509050925092509250909192565b82600090805190602001906105af9291906105e3565b5081600190805190602001906105c69291906105e3565b5080600290805190602001906105dd9291906105e3565b50505050565b828054600181600116156101000203166002900490600052602060002090601f016020900481019282601f1061062457805160ff1916838001178555610652565b82800160010185558215610652579182015b82811115610651578251825591602001919060010190610636565b5b50905061065f9190610663565b5090565b61068591905b80821115610681576000816000905550600101610669565b5090565b9056fea165627a7a72305820a036e4a30398c43fca8e9e749ecd66dde658a4145407a83fe37a544c7aeb7e890029",
  "source": "pragma solidity ^0.5.0;\r\n\r\ncontract realIdService {\r\n   string driverid;\r\n   string address1;\r\n   string address2;\r\n\r\nfunction setRealIdChange(string memory _driverid, string memory _address1,string memory _address2) public {\r\n      driverid = _driverid;\r\n      address1 = _address1;\r\n      address2 = _address2;\r\n      \r\n   }\r\n   \r\n   function getRealIdChange() public view returns (string memory,string memory,string memory) {\r\n       return ( driverid,address1,address2);\r\n   \r\n   }\r\n    \r\n}",
  "sourcePath": "/Users/mdjavedulferdous/Desktop/864/contracts/realid.sol",
  "compiler": {
    "name": "solc",
    "version": "0.5.0+commit.1d4f565a.Emscripten.clang"
  },
  "schemaVersion": "3.0.2",
  "updatedAt": "2021-04-29T01:35:46.029Z",
  "devdoc": {
    "methods": {}
  },
  "userdoc": {
    "methods": {}
  }
}