{
  "contractName": "VehicleRegService",
  "abi": [
    {
      "constant": false,
      "inputs": [
        {
          "name": "_driverid",
          "type": "string"
        },
        {
          "name": "_vehicleNo",
          "type": "string"
        },
        {
          "name": "_Address",
          "type": "string"
        },
        {
          "name": "_expirationdate",
          "type": "string"
        },
        {
          "name": "_renewaldate",
          "type": "string"
        }
      ],
      "name": "setVehicleRegChange",
      "outputs": [],
      "payable": false,
      "stateMutability": "nonpayable",
      "type": "function"
    },
    {
      "constant": true,
      "inputs": [],
      "name": "getVehicleRegChange",
      "outputs": [
        {
          "name": "",
          "type": "string"
        },
        {
          "name": "",
          "type": "string"
        },
        {
          "name": "",
          "type": "string"
        },
        {
          "name": "",
          "type": "string"
        },
        {
          "name": "",
          "type": "string"
        }
      ],
      "payable": false,
      "stateMutability": "view",
      "type": "function"
    }
  ],
  "bytecode": "0x608060405234801561001057600080fd5b50610a2f806100206000396000f3fe60806040526004361061004c576000357c0100000000000000000000000000000000000000000000000000000000900463ffffffff16806305a9a232146100515780636e8a968f14610291575b600080fd5b34801561005d57600080fd5b506100666105b5565b60405180806020018060200180602001806020018060200186810386528b818151815260200191508051906020019080838360005b838110156100b657808201518184015260208101905061009b565b50505050905090810190601f1680156100e35780820380516001836020036101000a031916815260200191505b5086810385528a818151815260200191508051906020019080838360005b8381101561011c578082015181840152602081019050610101565b50505050905090810190601f1680156101495780820380516001836020036101000a031916815260200191505b50868103845289818151815260200191508051906020019080838360005b83811015610182578082015181840152602081019050610167565b50505050905090810190601f1680156101af5780820380516001836020036101000a031916815260200191505b50868103835288818151815260200191508051906020019080838360005b838110156101e85780820151818401526020810190506101cd565b50505050905090810190601f1680156102155780820380516001836020036101000a031916815260200191505b50868103825287818151815260200191508051906020019080838360005b8381101561024e578082015181840152602081019050610233565b50505050905090810190601f16801561027b5780820380516001836020036101000a031916815260200191505b509a505050505050505050505060405180910390f35b34801561029d57600080fd5b506105b3600480360360a08110156102b457600080fd5b81019080803590602001906401000000008111156102d157600080fd5b8201836020820111156102e357600080fd5b8035906020019184600183028401116401000000008311171561030557600080fd5b91908080601f016020809104026020016040519081016040528093929190818152602001838380828437600081840152601f19601f8201169050808301925050505050505091929192908035906020019064010000000081111561036857600080fd5b82018360208201111561037a57600080fd5b8035906020019184600183028401116401000000008311171561039c57600080fd5b91908080601f016020809104026020016040519081016040528093929190818152602001838380828437600081840152601f19601f820116905080830192505050505050509192919290803590602001906401000000008111156103ff57600080fd5b82018360208201111561041157600080fd5b8035906020019184600183028401116401000000008311171561043357600080fd5b91908080601f016020809104026020016040519081016040528093929190818152602001838380828437600081840152601f19601f8201169050808301925050505050505091929192908035906020019064010000000081111561049657600080fd5b8201836020820111156104a857600080fd5b803590602001918460018302840111640100000000831117156104ca57600080fd5b91908080601f016020809104026020016040519081016040528093929190818152602001838380828437600081840152601f19601f8201169050808301925050505050505091929192908035906020019064010000000081111561052d57600080fd5b82018360208201111561053f57600080fd5b8035906020019184600183028401116401000000008311171561056157600080fd5b91908080601f016020809104026020016040519081016040528093929190818152602001838380828437600081840152601f19601f8201169050808301925050505050505091929192905050506108e4565b005b606080606080606060006001600260036004848054600181600116156101000203166002900480601f01602080910402602001604051908101604052809291908181526020018280546001816001161561010002031660029004801561065c5780601f106106315761010080835404028352916020019161065c565b820191906000526020600020905b81548152906001019060200180831161063f57829003601f168201915b50505050509450838054600181600116156101000203166002900480601f0160208091040260200160405190810160405280929190818152602001828054600181600116156101000203166002900480156106f85780601f106106cd576101008083540402835291602001916106f8565b820191906000526020600020905b8154815290600101906020018083116106db57829003601f168201915b50505050509350828054600181600116156101000203166002900480601f0160208091040260200160405190810160405280929190818152602001828054600181600116156101000203166002900480156107945780601f1061076957610100808354040283529160200191610794565b820191906000526020600020905b81548152906001019060200180831161077757829003601f168201915b50505050509250818054600181600116156101000203166002900480601f0160208091040260200160405190810160405280929190818152602001828054600181600116156101000203166002900480156108305780601f1061080557610100808354040283529160200191610830565b820191906000526020600020905b81548152906001019060200180831161081357829003601f168201915b50505050509150808054600181600116156101000203166002900480601f0160208091040260200160405190810160405280929190818152602001828054600181600116156101000203166002900480156108cc5780601f106108a1576101008083540402835291602001916108cc565b820191906000526020600020905b8154815290600101906020018083116108af57829003601f168201915b50505050509050945094509450945094509091929394565b84600090805190602001906108fa92919061095e565b50836001908051906020019061091192919061095e565b50826002908051906020019061092892919061095e565b50816003908051906020019061093f92919061095e565b50806004908051906020019061095692919061095e565b505050505050565b828054600181600116156101000203166002900490600052602060002090601f016020900481019282601f1061099f57805160ff19168380011785556109cd565b828001600101855582156109cd579182015b828111156109cc5782518255916020019190600101906109b1565b5b5090506109da91906109de565b5090565b610a0091905b808211156109fc5760008160009055506001016109e4565b5090565b9056fea165627a7a72305820818fcffe915afe95a0846c2dbe91cb97271fb1f3e40a942e85b9ae39797d83470029",
  "source": "pragma solidity ^0.5.0;\r\n\r\ncontract VehicleRegService {\r\n   string driverid;\r\n   string vehicleNo;\r\n   string Address;\r\n   string expirationdate;\r\n   string renewaldate;\r\n\r\nfunction setVehicleRegChange(string memory _driverid, string memory _vehicleNo,string  memory _Address,string memory _expirationdate,string memory _renewaldate) public {\r\n      driverid = _driverid;\r\n      vehicleNo= _vehicleNo;\r\n      Address = _Address;\r\n      expirationdate = _expirationdate;\r\n      renewaldate = _renewaldate;\r\n      \r\n   }\r\n   \r\n   function getVehicleRegChange() public view returns (string memory,string memory,string memory,string memory,string memory) {\r\n       return ( driverid,vehicleNo,Address,expirationdate,renewaldate);\r\n   \r\n   }\r\n    \r\n}",
  "sourcePath": "/Users/mdjavedulferdous/Desktop/864/contracts/VehicleRegistration.sol",
  "compiler": {
    "name": "solc",
    "version": "0.5.0+commit.1d4f565a.Emscripten.clang"
  },
  "schemaVersion": "3.0.2",
  "updatedAt": "2021-04-29T01:35:46.029Z",
  "devdoc": {
    "methods": {}
  },
  "userdoc": {
    "methods": {}
  }
}